:100000000C9463000C948B000C948B000C948B006C
:100010000C948B000C948B000C948B000C94420578
:100020000C948B000C948B000C948B000C948B0024
:100030000C948B000C948B000C948B000C948B0014
:100040000C94F6050C948B000C94C4050C949E053E
:100050000C948B000C948B000C948B000C948B00F4
:100060000C948B000C948B000000000024002700EF
:100070002A000000000023002600290000000008DC
:10008000000201000003040700000000000000005F
:10009000010204081020408001020408102001021F
:1000A0000408102000000000250028002B00040494
:1000B0000404040404040202020202020303030310
:1000C00003030200E60811241FBECFEFD8E0DEBF15
:1000D000CDBF23E0A8E5B2E001C01D92A73BB20767
:1000E000E1F712E0A0E0B1E0E4E7F7E102C005903B
:1000F0000D92A835B107D9F710E0C3E6D0E004C0EF
:100100002197FE010E94C009C236D107C9F70E949B
:1001100040060C94B80B0C940000AF92BF92CF92A3
:10012000DF92EF92FF920F931F93CF93DF936C01B7
:100130007B018B01040F151FEB015E01AE18BF0898
:10014000C017D10759F06991D601ED91FC9101904A
:10015000F081E02DC6010995892B79F7C501DF9162
:10016000CF911F910F91FF90EF90DF90CF90BF90B4
:10017000AF900895FC01538D448D252F30E0842FDE
:1001800090E0821B930B541710F0CF9608950197BF
:100190000895FC01918D828D981761F0A28DAE0FAC
:1001A000BF2FB11D5D968C91928D9F5F9F73928F33
:1001B00090E008958FEF9FEF0895FC01918D828D5F
:1001C000981731F0828DE80FF11D858D90E008952C
:1001D0008FEF9FEF0895FC01918D228D892F90E084
:1001E000805C9F4F821B91098F739927089585E04A
:1001F00093E00E94EB0021E0892B09F420E0822F9C
:10020000089580E090E0892B29F00E94F700811189
:100210000C9400000895FC01A48DA80FB92FB11D06
:10022000A35ABF4F2C91848D90E001968F7399272C
:10023000848FA689B7892C93A089B1898C9183700A
:1002400080648C93938D848D981306C00288F38903
:10025000E02D80818F7D80830895EF92FF920F9330
:100260001F93CF93DF93EC0181E0888F9B8D8C8D62
:1002700098131AC0E889F989808185FF15C09FB756
:10028000F894EE89FF896083E889F9898081837019
:10029000806480839FBF81E090E0DF91CF911F91C8
:1002A0000F91FF90EF900895F62E0B8D10E00F5FE9
:1002B0001F4F0F731127E02E8C8D8E110CC00FB6BF
:1002C00007FCFACFE889F989808185FFF5CFCE0157
:1002D0000E940B01F1CFEB8DEC0FFD2FF11DE35AC6
:1002E000FF4FF0829FB7F8940B8FEA89FB898081DA
:1002F0008062CFCFCF93DF93EC01888D8823B9F054
:10030000AA89BB89E889F9898C9185FD03C0808120
:1003100086FD0DC00FB607FCF7CF8C9185FFF2CF9D
:10032000808185FFEDCFCE010E940B01E9CFDF91E7
:10033000CF910895833081F028F4813099F0823094
:10034000A9F008958730A9F08830C9F08430B1F45D
:10035000809180008F7D03C0809180008F77809393
:100360008000089584B58F7784BD089584B58F7D0E
:10037000FBCF8091B0008F778093B000089580917B
:10038000B0008F7DF9CFCF93DF93282F30E0F901B4
:10039000E458FF4F8491F901E057FF4FD491F901E0
:1003A000E255FF4FC491CC23A1F081110E949A0124
:1003B000EC2FF0E0EE0FFF1FEE58FF4FA591B49128
:1003C000EC91ED2381E090E009F480E0DF91CF91A2
:1003D000089580E090E0FACF1F93CF93DF93282F0A
:1003E00030E0F901E458FF4F8491F901E057FF4FE5
:1003F000D491F901E255FF4FC491CC23A9F0162FF7
:1004000081110E949A01EC2FF0E0EE0FFF1FEC55D6
:10041000FF4FA591B4918FB7F894EC91111108C0DA
:10042000D095DE23DC938FBFDF91CF911F9108958C
:10043000DE2BF8CF9091000189130BC0E2ECF0E0C5
:10044000E4919FEF90930001E13049F028F0E23011
:1004500061F060E00C94EC0110926E00FACF909184
:100460006F009D7F90936F00F4CF909170009D7FFF
:100470009093700091E09093B0009091B100987FBC
:1004800094609093B1001092B300E3CFCF93DF93C9
:1004900090E0FC01E057FF4F249182559F4FFC01F3
:1004A00084918823D1F090E0880F991FFC01E859CE
:1004B000FF4FA591B491FC01EC55FF4FC591D4912C
:1004C000623071F49FB7F8943C91822F809583231A
:1004D0008C93E8812E2B28839FBFDF91CF910895C5
:1004E0008FB7F894EC912E2B2C938FBFF6CF8F9271
:1004F0009F92AF92BF92CF92DF92EF92FF92CF93F3
:100500006C0180910001873069F08F3F09F470C061
:10051000CF91FF90EF90DF90CF90BF90AF909F90E2
:100520008F900895E2ECF0E0C491C7FDF1CF61E057
:1005300087E00E944602CC2319F0C23009F022C1A4
:10054000F12CE12C60E072E18AE790E0A7019601CE
:100550000E947F0949015A01DA01C9010197A109E5
:10056000B1098F3F9105A105B10509F00CF4EEC06A
:1005700060E472E48FE090E0A70196010E947F0999
:100580002150310941095109C23009F0A0C082E06F
:100590002F3F31054105510509F00CF488C160E990
:1005A00070ED83E090E0A70196010E947F09215041
:1005B00031094109510983E02F3F310541055105BA
:1005C00009F00CF474C168E478EE81E090E0A701D2
:1005D00096010E947F0921503109410951092F3F9D
:1005E00031054105510511F00CF08FC084E05FC169
:1005F00087E080930001E2ECF0E0C491CF3F09F482
:1006000087CFC13021F150F0C23009F43EC0C7FDA0
:100610007FCF61E087E00E9446028FCF14BC15BCFB
:1006200084B5826084BD85B5816085BDE5EBF0E071
:10063000E491F0E0EE0FFF1FEC55FF4F8591949190
:10064000E7E9F0E0E491E093A603C0E070CF1092F8
:1006500080001092810080918100886080938100E9
:1006600080918100816080938100E5EBF0E0E4916E
:10067000F0E0EE0FFF1FEC55FF4F85919491E7E9F5
:10068000F0E0E491E093A50352CF1092B0001092F5
:10069000B1008091B00082608093B0008091B10081
:1006A00081608093B100E5EBF0E0E491F0E0EE0FC3
:1006B000FF1FEC55FF4F859194919093A403809375
:1006C000A303E7E9F0E0E491E093A20330CF2F3FEA
:1006D00031054105510509F00CF452C068E478EE8B
:1006E00081E090E0A70196010E947F092150310925
:1006F00041095109CC2309F4AFC02F3F3105410511
:10070000510511F00CF0B0C071CF64E274EF80E0DD
:1007100090E0A70196010E947F092150310941090B
:10072000510985E02F3F31054105510509F008F4D5
:10073000BEC062E17AE780E090E0A70196010E94E6
:100740007F0921503109410951099CC09C0181E078
:10075000C111ADC095B5987F892B85BD27BD8FEFA1
:100760009FEFDC018093AF039093B003A093B1039C
:10077000B093B20380916E00826080936E00C8CE09
:1007800082E0E6CFF12CE12C60E072E18AE790E0B4
:10079000A70196010E947F092150310941095109A1
:1007A00091E02115310581E0480751056CF068E4BE
:1007B00078EE81E090E0A70196010E947F09215028
:1007C00031094109510993E0C13009F076C08091A7
:1007D0008100887F892B809381003093890020934A
:1007E00088008FEF9FEFDC018093AB039093AC0305
:1007F000A093AD03B093AE0380916F0082608093AD
:100800006F0086CE2093B3008FEF9FEFDC018093C3
:10081000A7039093A803A093A903B093AA03809180
:10082000700082608093700073CE84E02F3F3105AA
:100830004105510509F008F48DCF9AE0B594A794CD
:10084000979487949A95D1F7A50194012150310985
:100850004109510985E07ECF83E02F3F31054105F5
:10086000510509F00CF476CF62E17AE780E090E080
:10087000A70196010E947F092150310941095109C0
:10088000CC2399F286E02F3F31054105510579F0DF
:1008900070F08AE0B594A794979487948A95D1F7DD
:1008A000A5019401215031094109510987E0909136
:1008B000B100987F892B8093B100C13009F48DCFAE
:1008C000C23009F49FCFC11123CE48CF8E3008F03B
:1008D0008E508770806480937C0080917A00806461
:1008E00080937A0080917A0086FDFCCF8091780019
:1008F0009091790008953FB7F894809159029091B2
:100900005A02A0915B02B0915C0226B5A89B05C07B
:100910002F3F19F00196A11DB11D3FBFBA2FA92F7E
:10092000982F8827BC01CD01620F711D811D911D7B
:1009300042E0660F771F881F991F4A95D1F70895E7
:100940008F929F92AF92BF92CF92DF92EF92FF92DF
:100950006B017C010E947B044B015C01C114D1043A
:10096000E104F104B9F00E947B04681979098A094D
:100970009B09683E73408105910580F321E0C21A0E
:10098000D108E108F10888EE880E83E0981EA11CCA
:10099000B11CE4CFFF90EF90DF90CF90BF90AF906D
:1009A0009F908F900895CF93DF93E9ECF2E0CDE52F
:1009B000D2E0A5E9B2E011921192199219921D921A
:1009C0001D9282E0EB3FF807B1F71092900210926F
:1009D0008F021092C8021092C70210920003109268
:1009E000010310920203109203031092FC02109272
:1009F000FD021092FE021092FF02DF91CF91089546
:100A000042E050E065E271E085E093E00C948D00F7
:100A10000F931F93CF93DF93EC0188819981009707
:100A200059F02A813B812617370730F081E0DF91AA
:100A3000CF911F910F9108958B016F5F7F4F0E949F
:100A4000EB0A009759F0998388831B830A832C81D2
:100A50003D81232B59F7FC011082E8CF80E0E7CFDE
:100A6000CF93DF93EC0188819981009711F00E9468
:100A7000620A198218821D821C821B821A82DF91EF
:100A8000CF9108951F920F920FB60F9211242F93BA
:100A90003F934F935F936F937F938F939F93AF9306
:100AA000BF93EF93FF938091A7039091A803A09128
:100AB000A903B091AA03892B8A2B8B2BD1F190919A
:100AC000A203E091A303F091A4038081892780838E
:100AD0008091A7039091A803A091A903B091AA03C4
:100AE000181619061A061B069CF48091A70390910C
:100AF000A803A091A903B091AA030197A109B10984
:100B00008093A7039093A803A093A903B093AA038B
:100B1000FF91EF91BF91AF919F918F917F916F91D5
:100B20005F914F913F912F910F900FBE0F901F90AB
:100B30001895809100010E941A02EACF1F920F922D
:100B40000FB60F9211242F933F934F935F936F93A0
:100B50007F938F939F93AF93BF93EF93FF9385E022
:100B600093E00E940B01FF91EF91BF91AF919F9194
:100B70008F917F916F915F914F913F912F910F9046
:100B80000FBE0F901F9018951F920F920FB60F92E5
:100B900011242F938F939F93EF93FF93E09115036D
:100BA000F09116038081E0911B03F0911C0382FDFC
:100BB0001BC0908180911E038F5F8F7320911F0354
:100BC000821741F0E0911E03F0E0EB5FFC4F958F40
:100BD00080931E03FF91EF919F918F912F910F9022
:100BE0000FBE0F901F9018958081F4CF1F920F9227
:100BF0000FB60F9211242F933F938F939F93AF9330
:100C0000BF938091910290919202A0919302B09132
:100C100094023091580223E0230F2D3758F50196A6
:100C2000A11DB11D209358028093910290939202CE
:100C3000A0939302B09394028091590290915A022A
:100C4000A0915B02B0915C020196A11DB11D809341
:100C5000590290935A02A0935B02B0935C02BF9139
:100C6000AF919F918F913F912F910F900FBE0F9059
:100C70001F90189526E8230F0296A11DB11DD2CF13
:100C8000CF93DF93CDB7DEB768970FB6F894DEBF8A
:100C90000FBECDBF789484B5826084BD84B5816079
:100CA00084BD85B5826085BD85B5816085BD809137
:100CB0006E00816080936E001092810080918100AF
:100CC00082608093810080918100816080938100A7
:100CD000809180008160809380008091B100846069
:100CE0008093B1008091B00081608093B0008091CA
:100CF0007A00846080937A0080917A008260809389
:100D00007A0080917A00816080937A0080917A00E5
:100D1000806880937A001092C100E0911503F091F1
:100D2000160382E08083E0911103F0911203108298
:100D3000E0911303F09114038FEC808310921D0354
:100D4000E0911903F0911A0386E08083E091170384
:100D5000F0911803808180618083E0911703F09106
:100D60001803808188608083E0911703F091180355
:100D7000808180688083E0911703F091180380815F
:100D80008F7D808361E087E00E94460261E088E019
:100D90000E94460262E083E00E94460262E084E034
:100DA0000E94460262E085E00E94460262E086E020
:100DB0000E944602B5E22B2EB1E03B2E8E010F5F62
:100DC0001F4F80E0482E80E0582E83E00E94C30130
:100DD000892B09F04AC08091C9029091CA02892BDF
:100DE00009F443C0E9ECEE2EE2E0FE2EFDE58F2E85
:100DF000F2E09F2EA5E9AA2EA2E0BA2E8BEFE8160C
:100E000082E0F80601F1D701CD90DD907D01C601A9
:100E10000E947702F401619171914F01072E000C3D
:100E2000880B990B0E94A00487E00E941A02D5014A
:100E30006D917D915D01072E000C880B990B0E942E
:100E4000A004CD28D9F6109204031092000310924A
:100E5000010310920203109203031092FC021092FD
:100E6000FD021092FE021092FF028AE00E94C3016E
:100E7000892B09F443C0B1E0B093FB0261E088E044
:100E80000E94EC0152E2652E51E0752E6CE1A62E17
:100E900061E0B62E79E1C72E71E0D72EF301919073
:100EA0003F01892D0E94C301892B09F061C1F1E046
:100EB000F09304032FB7F8948091910290919202DD
:100EC000A0919302B09194022FBF8093000390935E
:100ED0000103A0930203B0930303892D0E94C30171
:100EE000892BA9F4D501ED90FC90F60180810E9438
:100EF00066048E0D9F1D0E947702EFCF1092FB02B9
:100F000060E088E00E94EC010E94D304BBCF2FB7C1
:100F1000F8948091910290919202A0919302B091E5
:100F200094022FBF4091000350910103609102038E
:100F300070910303841B950BA60BB70B8093FC02E7
:100F40009093FD02A093FE02B093FF0287E00E94FF
:100F50001A026AE070E080E090E00E94A0042FB7DF
:100F6000F8948091910290919202A0919302B09195
:100F700094022FBF8093000390930103A093020378
:100F8000B09303038091FB02882309F4B7C0E0907B
:100F9000FC02F090FD02D5018D909C90F6018081BD
:100FA0000E946604E0918F02F09190029F01220F4F
:100FB000331FD901A35ABD4FED92FC9227533D4FE9
:100FC000880D991DD9018D939C931C8A1B8A1E8ABA
:100FD0001D8A188E1F8A4AE0B801CF0101960E942F
:100FE0001309F80101900020E9F731977F01E01A19
:100FF000F10AB701CE0143960E940805811194C001
:10100000CE0143960E9430051A8219821C821B82EF
:101010001E821D826FE470E0C8010E9408058111E4
:101020008BC0C8010E9430058B889C888114910474
:1010300009F48DC0EF88F88CE114F104B1F08D81D2
:101040009E81E80EF91EB701C8010E940805882399
:1010500009F47DC029813A818D819E81B401820F7E
:10106000931F0E94B10BFE82ED82ED80FE80BCE3F7
:10107000EB0EF11CB701C8010E94080581116BC07D
:10108000C8010E9430054D815E8169817A8185E0C9
:1010900093E00E948D000E94000589819A8100974B
:1010A00011F00E94620A8B899C89009711F00E94BE
:1010B000620A80918F029091900201969093900223
:1010C00080938F022091C7023091C8022F5F3F4F5B
:1010D0003093C8022093C7024A9784F0109290027E
:1010E00010928F0241EA50E065EB71E085E093E0F9
:1010F0000E948D000E9400050E94D304E2E0AE0E23
:10110000B11CFFEFCF1ADF0A2614370409F0C6CE50
:101110004114510409F459CE0E94F700882309F4C0
:1011200054CE0E94000051CEF88EEF8AB8018B8910
:101130009C890E94B10B68CF8FE490E09E838D83E1
:1011400068E271E089819A810E94B10B6DCFC8017C
:101150000E9430058ACF29813A818D819E8168E77E
:1011600071E0820F931F0E94B10BFE82ED828BCF44
:101170008091C9029091CA02892B09F4BFCF809156
:101180000403882309F4BACF2FB7F8948091910211
:1011900090919202A0919302B09194022FBFE0919E
:1011A000C702F091C802EE0FFF1FEB56FD4F4091B2
:1011B0000003509101036091020370910303841BAB
:1011C000950BA60BB70B9183808398CFE5E0F3E0F6
:1011D0001382128288EE93E0A0E0B0E084839583CE
:1011E000A683B7838BE091E09183808385EC90E0C8
:1011F0009587848784EC90E09787868780EC90E0E1
:10120000918B808B81EC90E0938B828B82EC90E0D1
:10121000958B848B86EC90E0978B868B118E128E4B
:10122000138E148E0895BB274A3031F4992322F48B
:10123000BDE2909581959F4F0C941F09BB27FB0140
:101240005527AA27880F991FAA1FA41710F0A41BBF
:1012500083955051B9F7A05DAA3308F0A95DA19319
:10126000009779F7B111B1931192CB010C94380921
:10127000DC01FC01672F71917723E1F7329704C0FD
:101280007C916D9370836291AE17BF07C8F3089588
:101290002F923F924F925F926F927F928F929F9286
:1012A000AF92BF92CF92DF92EF92FF920F931F9374
:1012B000CF93DF93CDB7DEB7CA1BDB0B0FB6F89425
:1012C000DEBF0FBECDBF09942A88398848885F8465
:1012D0006E847D848C849B84AA84B984C884DF80D6
:1012E000EE80FD800C811B81AA81B981CE0FD11DBA
:1012F0000FB6F894DEBF0FBECDBFED010895052EE9
:1013000097FB1EF400940E94960957FD07D00E9497
:101310009E0907FC03D04EF40C9496095095409515
:10132000309521953F4F4F4F5F4F08959095809591
:10133000709561957F4F8F4F9F4F0895A1E21A2EB0
:10134000AA1BBB1BFD010DC0AA1FBB1FEE1FFF1F69
:10135000A217B307E407F50720F0A21BB30BE40BB9
:10136000F50B661F771F881F991F1A9469F7609500
:101370007095809590959B01AC01BD01CF010895BA
:10138000EE0FFF1F0590F491E02D09940F931F932A
:10139000CF93DF938230910510F482E090E0E091EA
:1013A000B503F091B60330E020E0B0E0A0E0309764
:1013B00099F42115310509F44AC0281B390B243052
:1013C0003105D8F58A819B816115710589F1FB0191
:1013D00093838283FE0111C0408151810281138178
:1013E00048175907E0F04817590799F4109761F02A
:1013F00012960C93129713961C933296CF01DF919D
:10140000CF911F910F9108950093B5031093B603E8
:10141000F4CF2115310551F04217530738F0A901D7
:10142000DB019A01BD01DF01F801C1CFEF01F9CF66
:101430009093B6038093B503CDCFFE01E20FF31F67
:10144000819391932250310939832883D7CF2091FA
:10145000B3033091B403232B41F420910301309165
:1014600004013093B4032093B30320910101309120
:1014700002012115310541F42DB73EB74091050118
:1014800050910601241B350BE091B303F091B40396
:10149000E217F307A0F42E1B3F0B2817390778F04B
:1014A000AC014E5F5F4F2417350748F04E0F5F1FAA
:1014B0005093B4034093B303819391939FCFF0E093
:1014C000E0E09CCFCF93DF930097E9F0FC013297E7
:1014D00013821282A091B503B091B603ED0130E002
:1014E00020E01097A1F420813181820F931F209179
:1014F000B3033091B4032817390709F061C0F093A2
:10150000B403E093B303DF91CF910895EA01CE17BE
:10151000DF07E8F54A815B819E0141155105B1F76E
:10152000E901FB83EA8349915991C40FD51FEC1758
:10153000FD0761F4808191810296840F951FE90176
:1015400099838883828193819B838A83F0E0E0E0A2
:1015500012968D919C9113970097B9F52D913C911E
:101560001197CD010296820F931F2091B303309102
:10157000B4032817390739F6309751F51092B6039E
:101580001092B503B093B403A093B303BCCFD3833D
:10159000C28340815181840F951FC817D90761F418
:1015A0004E5F5F4F88819981480F591F5183408357
:1015B0008A819B81938382832115310509F0B0CF05
:1015C000F093B603E093B5039ECFFD01DC01C0CFDD
:1015D00013821282D7CFB0E0A0E0E1EFFAE00C94E2
:1015E0004A098C01009751F4CB010E94C6098C0175
:1015F000C801CDB7DEB7E0E10C946609FC01E60F47
:10160000F71F9C0122503109E217F30708F49DC02F
:10161000D901CD91DC911197C617D70798F0C53045
:10162000D10530F3CE0104978617970708F3C61B40
:10163000D70B2297C193D1936D937C93CF010E94D6
:10164000620AD6CF5B01AC1ABD0A4C018C0E9D1EFE
:10165000A091B503B091B603512C412CF12CE12C93
:10166000109731F58091B3039091B40388159905D3
:1016700009F05CC04616570608F058C08091010179
:1016800090910201009741F48DB79EB740910501FA
:1016900050910601841B950BE817F90708F055C017
:1016A000F093B403E093B303F90171836083A0CF97
:1016B0008D919C91119712966C90129713967C9035
:1016C0001397A815B90559F56C0142E0C40ED11C59
:1016D000CA14DB0420F1AC014A195B09DA01129645
:1016E000159780F06282738251834083D9016D9394
:1016F0007C93E114F10471F0D7011396FC93EE93FF
:10170000129776CF22968C0F9D1FF90191838083CB
:10171000F301EFCFF093B603E093B50369CF48161A
:10172000590608F42C017D01D3019ACFCB010E9408
:10173000C6097C01009749F0AE01B8010E94A80BD0
:10174000C8010E94620A870153CF10E000E050CF29
:10175000FB01DC0102C001900D9241505040D8F7CE
:101760000895FB01DC0101900D920020E1F708953E
:04177000F894FFCF1B
:10177400FF0000B7038000000000002D018D00BAB7
:10178400007A01EB00C900DD000E0F106400C800F0
:101794002C010405060D0A00EFBFBDEFBFBDEFBF6E
:1017A400BDEFBFBD20EFBFBDEFBFBDEFBFBDEFBFFE
:1017B400BDEFBFBDEFBFBDEFBFBDEFBFBD2120EF8C
:1017C400BFBDEFBFBDEFBFBDEFBFBDEFBFBDEFBF3F
:1017D400BDEFBFBDEFBFBDEFBFBDEFBFBDEFBFBD31
:1017E400EFBFBDEFBFBD200020EFBFBDEFBFBDEF1A
:1017F400BFBD28EFBFBD2920EFBFBDEFBFBD203265
:10180400352DEFBFBDEFBFBD20EFBFBDEFBFBDEFB7
:10181400BFBDEFBFBDEFBFBDEFBFBDEFBFBDEFBFEE
:10182400BDEFBFBD00EFBFBDEFBFBD20EFBFBDEF3C
:10183400BFBDEFBFBDEFBFBDEFBFBDEFBFBDEFBFCE
:10184400BDEFBFBDEFBFBDEFBFBD20EFBFBDEFBF5D
:10185400BDEFBFBDEFBFBDEFBFBDEFBFBDEFBFBDB0
:10186400EFBFBDEFBFBDEFBFBD20EFBFBDEFBFBD3D
:10187400EFBFBDEFBFBDEFBFBDEFBFBDEFBFBDEF5E
:10188400BFBDEFBFBDEFBFBD20EFBFBDEFBFBDEF1D
:10189400BFBDEFBFBDEFBFBDEFBFBDEFBFBD2E20CE
:1018A400EFBFBDEFBFBDEFBFBDEFBFBDEFBFBDEF2E
:1018B400BFBDEFBFBD20EFBFBDEFBFBDEFBFBDEFED
:0818C400BFBDEFBFBD2E000007
:00000001FF
